{
  "contractName": "DydxFlashloaner",
  "abi": [
    {
      "anonymous": false,
      "inputs": [
        {
          "indexed": false,
          "internalType": "uint256",
          "name": "number",
          "type": "uint256"
        },
        {
          "indexed": false,
          "internalType": "uint256",
          "name": "amount",
          "type": "uint256"
        }
      ],
      "name": "Logger",
      "type": "event"
    },
    {
      "stateMutability": "payable",
      "type": "fallback",
      "payable": true
    },
    {
      "inputs": [
        {
          "internalType": "uint256",
          "name": "_amount",
          "type": "uint256"
        }
      ],
      "name": "withdraw",
      "outputs": [
        {
          "internalType": "bool",
          "name": "",
          "type": "bool"
        }
      ],
      "stateMutability": "payable",
      "type": "function",
      "payable": true
    },
    {
      "inputs": [
        {
          "internalType": "address",
          "name": "_token",
          "type": "address"
        },
        {
          "internalType": "uint256",
          "name": "_amount",
          "type": "uint256"
        }
      ],
      "name": "approve",
      "outputs": [
        {
          "internalType": "bool",
          "name": "",
          "type": "bool"
        }
      ],
      "stateMutability": "nonpayable",
      "type": "function"
    },
    {
      "inputs": [
        {
          "internalType": "address",
          "name": "_token",
          "type": "address"
        },
        {
          "internalType": "uint256",
          "name": "_amount",
          "type": "uint256"
        }
      ],
      "name": "withdrawToken",
      "outputs": [
        {
          "internalType": "bool",
          "name": "",
          "type": "bool"
        }
      ],
      "stateMutability": "nonpayable",
      "type": "function"
    },
    {
      "inputs": [
        {
          "internalType": "address",
          "name": "sender",
          "type": "address"
        },
        {
          "components": [
            {
              "internalType": "address",
              "name": "owner",
              "type": "address"
            },
            {
              "internalType": "uint256",
              "name": "number",
              "type": "uint256"
            }
          ],
          "internalType": "struct Account.Info",
          "name": "account",
          "type": "tuple"
        },
        {
          "internalType": "bytes",
          "name": "data",
          "type": "bytes"
        }
      ],
      "name": "callFunction",
      "outputs": [],
      "stateMutability": "nonpayable",
      "type": "function"
    },
    {
      "inputs": [
        {
          "internalType": "address",
          "name": "_solo",
          "type": "address"
        },
        {
          "internalType": "address",
          "name": "_token",
          "type": "address"
        },
        {
          "internalType": "uint256",
          "name": "_amount",
          "type": "uint256"
        },
        {
          "internalType": "address[]",
          "name": "_sequences",
          "type": "address[]"
        },
        {
          "internalType": "uint256[]",
          "name": "_returnAmounts",
          "type": "uint256[]"
        },
        {
          "internalType": "uint256[]",
          "name": "_distributions",
          "type": "uint256[]"
        },
        {
          "internalType": "uint256",
          "name": "_parts",
          "type": "uint256"
        }
      ],
      "name": "initateFlashLoan",
      "outputs": [],
      "stateMutability": "nonpayable",
      "type": "function"
    }
  ],
  "bytecode": "0x6080604052600080546001600160a01b0319163317905534801561002257600080fd5b5061156d806100326000396000f3fe60806040526004361061004a5760003560e01c8063095ea7b31461004c5780632e1a7d4d146100825780638b418713146100955780639e281a98146100b5578063f416a25c146100d5575b005b34801561005857600080fd5b5061006c610067366004610ecc565b6100f5565b6040516100799190611272565b60405180910390f35b61006c610090366004610ff8565b610196565b3480156100a157600080fd5b5061004a6100b0366004610df0565b6101f5565b3480156100c157600080fd5b5061006c6100d0366004610ecc565b610459565b3480156100e157600080fd5b5061004a6100f0366004610d20565b61049f565b600080546001600160a01b0316331461010d57600080fd5b60405163095ea7b360e01b81526001600160a01b0384169063095ea7b39061013b90339086906004016111b7565b602060405180830381600087803b15801561015557600080fd5b505af1158015610169573d6000803e3d6000fd5b505050506040513d601f19601f8201168201806040525081019061018d9190610ef7565b90505b92915050565b600080546001600160a01b031633146101ae57600080fd5b4782116101ec57604051339083156108fc029084906000818181858888f193505050501580156101e2573d6000803e3d6000fd5b50600190506101f0565b5060005b919050565b6101fd610b03565b818060200190518101906102119190610f17565b9050600081600001516001600160a01b03166370a08231306040518263ffffffff1660e01b815260040161024591906111a3565b60206040518083038186803b15801561025d57600080fd5b505afa158015610271573d6000803e3d6000fd5b505050506040513d601f19601f820116820180604052508101906102959190611010565b905081604001518110156102c45760405162461bcd60e51b81526004016102bb906112d8565b60405180910390fd5b602082015160015b83606001515181101561042d576000846060015160018303815181106102ee57fe5b6020026020010151905060008560600151838151811061030a57fe5b60200260200101519050606060008090505b8760c0015181101561036a578760a001518860c00151600187030282018151811061034357fe5b602002602001015182828151811061035757fe5b602090810291909101015260010161031c565b5073c586bef4a0992c495cf22e1aeee4e446cecdee0e6001600160a01b031663e2a7515e8484888b6080015160018a03815181106103a457fe5b60200260200101518660006040518763ffffffff1660e01b81526004016103d09695949392919061127d565b600060405180830381600087803b1580156103ea57600080fd5b505af11580156103fe573d6000803e3d6000fd5b505050508660800151600185038151811061041557fe5b602002602001015194505050508060010190506102cc565b50826020015181116104515760405162461bcd60e51b81526004016102bb9061135b565b505050505050565b600080546001600160a01b0316331461047157600080fd5b60405163a9059cbb60e01b81526001600160a01b0384169063a9059cbb9061013b90339086906004016111b7565b600080516020611518833981519152600a806040516104bf9291906112ca565b60405180910390a18960006104d4828c61082d565b905060006104e18b610978565b90508b6001600160a01b031663095ea7b38e836040518363ffffffff1660e01b81526004016105119291906111b7565b602060405180830381600087803b15801561052b57600080fd5b505af115801561053f573d6000803e3d6000fd5b505050506040513d601f19601f820116820180604052508101906105639190610ef7565b5060408051600380825260808201909252606091816020015b610584610b49565b81526020019060019003908161057c5790505090506000805160206115188339815191526000806040516105b99291906112ca565b60405180910390a16105cb838d61098b565b816000815181106105d857fe5b6020026020010181905250600080516020611518833981519152600060016040516106049291906112ca565b60405180910390a16107056040518060e001604052808f6001600160a01b031681526020018e81526020018481526020018d8d808060200260200160405190810160405280939291908181526020018383602002808284376000920191909152505050908252506040805160208d810282810182019093528d82529283019290918e918e9182918501908490808284376000920191909152505050908252506040805160208b810282810182019093528b82529283019290918c918c91829185019084908082843760009201919091525050509082525060209081018890526040516106f19291016113cc565b604051602081830303815290604052610a15565b8160018151811061071257fe5b60200260200101819052506000805160206115188339815191526000600260405161073e9291906112ca565b60405180910390a16107508383610a83565b8160028151811061075d57fe5b6020908102919091010152604080516001808252818301909252606091816020015b610787610b9b565b81526020019060019003908161077f5790505090506107a4610abe565b816000815181106107b157fe5b602090810291909101015260405163a67a6a4560e01b81526001600160a01b0386169063a67a6a45906107ea90849086906004016111d0565b600060405180830381600087803b15801561080457600080fd5b505af1158015610818573d6000803e3d6000fd5b50505050505050505050505050505050505050565b6000808390506000816001600160a01b031663295c39a56040518163ffffffff1660e01b815260040160206040518083038186803b15801561086e57600080fd5b505afa158015610882573d6000803e3d6000fd5b505050506040513d601f19601f820116820180604052508101906108a69190611010565b90506000805b8281101561095f5760405163062bd3e960e01b81526001600160a01b0385169063062bd3e9906108e0908490600401611498565b60206040518083038186803b1580156108f857600080fd5b505afa15801561090c573d6000803e3d6000fd5b505050506040513d601f19601f820116820180604052508101906109309190610d04565b9150856001600160a01b0316826001600160a01b0316141561095757935061019092505050565b6001016108ac565b5060405162461bcd60e51b81526004016102bb90611388565b600061019082600263ffffffff610ade16565b610993610b49565b604080516101008101825260018152600060208083018290528351608081018552828152929384019291908201905b81526020016000815260200185815250815260200184815260200160008152602001306001600160a01b031681526020016000815260200160405180602001604052806000815250815250905092915050565b610a1d610b49565b6040805161010081018252600881526000602080830182905283516080810185528281529293840192919082019081526020016000815260006020918201819052918352820181905260408201819052306060830152608082015260a001929092525090565b610a8b610b49565b604080516101008101825260008082526020808301829052835160808101855260018152929384019291908201906109c2565b610ac6610b9b565b50604080518082019091523081526001602082015290565b60008282018381101561018d5760405162461bcd60e51b81526004016102bb90611324565b6040518060e0016040528060006001600160a01b031681526020016000815260200160008152602001606081526020016060815260200160608152602001600081525090565b604080516101008101825260008082526020820152908101610b69610bb2565b8152602001600081526020016000815260200160006001600160a01b0316815260200160008152602001606081525090565b604080518082019091526000808252602082015290565b604080516080810190915260008082526020820190815260200160008152602001600081525090565b8051610190816114ff565b60008083601f840112610bf7578182fd5b50813567ffffffffffffffff811115610c0e578182fd5b6020830191508360208083028501011115610c2857600080fd5b9250929050565b600082601f830112610c3f578081fd5b8151610c52610c4d826114c8565b6114a1565b818152915060208083019084810181840286018201871015610c7357600080fd5b60005b84811015610c9b578151610c89816114ff565b84529282019290820190600101610c76565b505050505092915050565b600082601f830112610cb6578081fd5b8151610cc4610c4d826114c8565b818152915060208083019084810181840286018201871015610ce557600080fd5b60005b84811015610c9b57815184529282019290820190600101610ce8565b600060208284031215610d15578081fd5b815161018d816114ff565b60008060008060008060008060008060e08b8d031215610d3e578586fd5b8a35610d49816114ff565b995060208b0135610d59816114ff565b985060408b0135975060608b013567ffffffffffffffff80821115610d7c578788fd5b610d888e838f01610be6565b909950975060808d0135915080821115610da0578687fd5b610dac8e838f01610be6565b909750955060a08d0135915080821115610dc4578485fd5b50610dd18d828e01610be6565b81955080945050505060c08b013590509295989b9194979a5092959850565b60008060008385036080811215610e05578384fd5b8435610e10816114ff565b93506020601f1960408382011215610e26578485fd5b610e3060406114a1565b925081870135610e3f816114ff565b835260408701358284015291935060608601359167ffffffffffffffff80841115610e68578485fd5b83880189601f820112610e79578586fd5b8035945081851115610e89578586fd5b610e998484601f880116016114a1565b91508482528984868301011115610eae578586fd5b84848201858401375084838583010152809450505050509250925092565b60008060408385031215610ede578182fd5b8235610ee9816114ff565b946020939093013593505050565b600060208284031215610f08578081fd5b8151801515811461018d578182fd5b600060208284031215610f28578081fd5b815167ffffffffffffffff80821115610f3f578283fd5b81840160e08187031215610f51578384fd5b610f5b60e06114a1565b9250610f678682610bdb565b83526020810151602084015260408101516040840152606081015182811115610f8e578485fd5b610f9a87828401610c2f565b606085015250608081015182811115610fb1578485fd5b610fbd87828401610ca6565b60808501525060a081015182811115610fd4578485fd5b610fe087828401610ca6565b60a08501525060c09081015190830152509392505050565b600060208284031215611009578081fd5b5035919050565b600060208284031215611021578081fd5b5051919050565b6001600160a01b0316815260200190565b600061016082516009811061104a57fe5b8085525060208301516020850152604083015161106a604086018261116e565b50606083015160c0850152608083015160e085015260a08301516110926101008601826110dc565b5060c083015161012085015260e0830151816101408601526110b682860182611123565b95945050505050565b80516001600160a01b031682526020908101519082015260400190565b6001600160a01b03169052565b6000815180845260208085019450808401835b83811015611118578151875295820195908201906001016110fc565b509495945050505050565b60008151808452815b818110156111485760208185018101518683018201520161112c565b818111156111595782602083870101525b50601f01601f19169290920160200192915050565b80511515825261118160208201516114f4565b602083015261119360408201516114f4565b6040830152606090810151910152565b6001600160a01b0391909116815260200190565b6001600160a01b03929092168252602082015260400190565b600060408201604083528085516111e78184611498565b915060209250828701845b82811015611213576112058483516110bf565b9350908401906001016111f2565b5050508381038285015280855161122a8184611498565b91508192508381028201848801865b83811015611263578583038552611251838351611039565b94870194925090860190600101611239565b50909998505050505050505050565b901515815260200190565b6001600160a01b03878116825286166020820152604081018590526060810184905260c0608082018190526000906112b7908301856110e9565b90508260a0830152979650505050505050565b918252602082015260400190565b6020808252602c908201527f446f204e6f74206861766520656e6f7567682066756e647320746f207265706160408201526b792064796478206c6f616e2160a01b606082015260800190565b6020808252601b908201527f536166654d6174683a206164646974696f6e206f766572666c6f770000000000604082015260600190565b60208082526013908201527273776170206e6f742070726f66697461626c6560681b604082015260600190565b60208082526024908201527f4e6f206d61726b6574496420666f756e6420666f722070726f7669646564207460408201526337b5b2b760e11b606082015260800190565b6000602080835261010083016113e285516114e8565b8285015281850151604085015260408501516060850152606085015160e060808601528181516114128185611498565b9285019350859291505b808310156114415761142f828551611028565b9150848401935060018301925061141c565b5060808701519350601f199250828682030160a087015261146281856110e9565b91505060a08601519250818582030160c086015261148081846110e9565b91505060c085015160e0850152809250505092915050565b90815260200190565b60405181810167ffffffffffffffff811182821017156114c057600080fd5b604052919050565b600067ffffffffffffffff8211156114de578081fd5b5060209081020190565b6001600160a01b031690565b80600281106101f057fe5b6001600160a01b038116811461151457600080fd5b5056fe7626b5da51d4847bbf455673cb72e8d2e5d71ad02693a93b18a3f9d3f724ef99a26469706673582212205a0d59051acbfceb601d204ed2dfbc5edefa8a196cc0b1d9aa4ddeac1fba662a64736f6c63430006060033",
  "immutableReferences": {},
  "source": "\n// File: @openzeppelin\\contracts\\math\\SafeMath.sol\n\npragma solidity ^0.6.6;\n\n/**\n * @dev Wrappers over Solidity's arithmetic operations with added overflow\n * checks.\n *\n * Arithmetic operations in Solidity wrap on overflow. This can easily result\n * in bugs, because programmers usually assume that an overflow raises an\n * error, which is the standard behavior in high level programming languages.\n * `SafeMath` restores this intuition by reverting the transaction when an\n * operation overflows.\n *\n * Using this library instead of the unchecked operations eliminates an entire\n * class of bugs, so it's recommended to use it always.\n */\nlibrary SafeMath {\n    /**\n     * @dev Returns the addition of two unsigned integers, reverting on\n     * overflow.\n     *\n     * Counterpart to Solidity's `+` operator.\n     *\n     * Requirements:\n     * - Addition cannot overflow.\n     */\n    function add(uint256 a, uint256 b) internal pure returns (uint256) {\n        uint256 c = a + b;\n        require(c >= a, \"SafeMath: addition overflow\");\n\n        return c;\n    }\n\n    /**\n     * @dev Returns the subtraction of two unsigned integers, reverting on\n     * overflow (when the result is negative).\n     *\n     * Counterpart to Solidity's `-` operator.\n     *\n     * Requirements:\n     * - Subtraction cannot overflow.\n     */\n    function sub(uint256 a, uint256 b) internal pure returns (uint256) {\n        return sub(a, b, \"SafeMath: subtraction overflow\");\n    }\n\n    /**\n     * @dev Returns the subtraction of two unsigned integers, reverting with custom message on\n     * overflow (when the result is negative).\n     *\n     * Counterpart to Solidity's `-` operator.\n     *\n     * Requirements:\n     * - Subtraction cannot overflow.\n     *\n     * _Available since v2.4.0._\n     */\n    function sub(uint256 a, uint256 b, string memory errorMessage) internal pure returns (uint256) {\n        require(b <= a, errorMessage);\n        uint256 c = a - b;\n\n        return c;\n    }\n\n    /**\n     * @dev Returns the multiplication of two unsigned integers, reverting on\n     * overflow.\n     *\n     * Counterpart to Solidity's `*` operator.\n     *\n     * Requirements:\n     * - Multiplication cannot overflow.\n     */\n    function mul(uint256 a, uint256 b) internal pure returns (uint256) {\n        // Gas optimization: this is cheaper than requiring 'a' not being zero, but the\n        // benefit is lost if 'b' is also tested.\n        // See: https://github.com/OpenZeppelin/openzeppelin-contracts/pull/522\n        if (a == 0) {\n            return 0;\n        }\n\n        uint256 c = a * b;\n        require(c / a == b, \"SafeMath: multiplication overflow\");\n\n        return c;\n    }\n\n    /**\n     * @dev Returns the integer division of two unsigned integers. Reverts on\n     * division by zero. The result is rounded towards zero.\n     *\n     * Counterpart to Solidity's `/` operator. Note: this function uses a\n     * `revert` opcode (which leaves remaining gas untouched) while Solidity\n     * uses an invalid opcode to revert (consuming all remaining gas).\n     *\n     * Requirements:\n     * - The divisor cannot be zero.\n     */\n    function div(uint256 a, uint256 b) internal pure returns (uint256) {\n        return div(a, b, \"SafeMath: division by zero\");\n    }\n\n    /**\n     * @dev Returns the integer division of two unsigned integers. Reverts with custom message on\n     * division by zero. The result is rounded towards zero.\n     *\n     * Counterpart to Solidity's `/` operator. Note: this function uses a\n     * `revert` opcode (which leaves remaining gas untouched) while Solidity\n     * uses an invalid opcode to revert (consuming all remaining gas).\n     *\n     * Requirements:\n     * - The divisor cannot be zero.\n     *\n     * _Available since v2.4.0._\n     */\n    function div(uint256 a, uint256 b, string memory errorMessage) internal pure returns (uint256) {\n        // Solidity only automatically asserts when dividing by 0\n        require(b > 0, errorMessage);\n        uint256 c = a / b;\n        // assert(a == b * c + a % b); // There is no case in which this doesn't hold\n\n        return c;\n    }\n\n    /**\n     * @dev Returns the remainder of dividing two unsigned integers. (unsigned integer modulo),\n     * Reverts when dividing by zero.\n     *\n     * Counterpart to Solidity's `%` operator. This function uses a `revert`\n     * opcode (which leaves remaining gas untouched) while Solidity uses an\n     * invalid opcode to revert (consuming all remaining gas).\n     *\n     * Requirements:\n     * - The divisor cannot be zero.\n     */\n    function mod(uint256 a, uint256 b) internal pure returns (uint256) {\n        return mod(a, b, \"SafeMath: modulo by zero\");\n    }\n\n    /**\n     * @dev Returns the remainder of dividing two unsigned integers. (unsigned integer modulo),\n     * Reverts with custom message when dividing by zero.\n     *\n     * Counterpart to Solidity's `%` operator. This function uses a `revert`\n     * opcode (which leaves remaining gas untouched) while Solidity uses an\n     * invalid opcode to revert (consuming all remaining gas).\n     *\n     * Requirements:\n     * - The divisor cannot be zero.\n     *\n     * _Available since v2.4.0._\n     */\n    function mod(uint256 a, uint256 b, string memory errorMessage) internal pure returns (uint256) {\n        require(b != 0, errorMessage);\n        return a % b;\n    }\n}\n\n// File: @openzeppelin\\contracts\\token\\ERC20\\IERC20.sol\n\npragma solidity ^0.6.0;\n\n/**\n * @dev Interface of the ERC20 standard as defined in the EIP. Does not include\n * the optional functions; to access them see {ERC20Detailed}.\n */\ninterface IERC20 {\n    /**\n     * @dev Returns the amount of tokens in existence.\n     */\n    function totalSupply() external view returns (uint256);\n\n    /**\n     * @dev Returns the amount of tokens owned by `account`.\n     */\n    function balanceOf(address account) external view returns (uint256);\n\n    /**\n     * @dev Moves `amount` tokens from the caller's account to `recipient`.\n     *\n     * Returns a boolean value indicating whether the operation succeeded.\n     *\n     * Emits a {Transfer} event.\n     */\n    function transfer(address recipient, uint256 amount) external returns (bool);\n\n    /**\n     * @dev Returns the remaining number of tokens that `spender` will be\n     * allowed to spend on behalf of `owner` through {transferFrom}. This is\n     * zero by default.\n     *\n     * This value changes when {approve} or {transferFrom} are called.\n     */\n    function allowance(address owner, address spender) external view returns (uint256);\n\n    /**\n     * @dev Sets `amount` as the allowance of `spender` over the caller's tokens.\n     *\n     * Returns a boolean value indicating whether the operation succeeded.\n     *\n     * IMPORTANT: Beware that changing an allowance with this method brings the risk\n     * that someone may use both the old and the new allowance by unfortunate\n     * transaction ordering. One possible solution to mitigate this race\n     * condition is to first reduce the spender's allowance to 0 and set the\n     * desired value afterwards:\n     * https://github.com/ethereum/EIPs/issues/20#issuecomment-263524729\n     *\n     * Emits an {Approval} event.\n     */\n    function approve(address spender, uint256 amount) external returns (bool);\n\n    /**\n     * @dev Moves `amount` tokens from `sender` to `recipient` using the\n     * allowance mechanism. `amount` is then deducted from the caller's\n     * allowance.\n     *\n     * Returns a boolean value indicating whether the operation succeeded.\n     *\n     * Emits a {Transfer} event.\n     */\n    function transferFrom(address sender, address recipient, uint256 amount) external returns (bool);\n\n    /**\n     * @dev Emitted when `value` tokens are moved from one account (`from`) to\n     * another (`to`).\n     *\n     * Note that `value` may be zero.\n     */\n    event Transfer(address indexed from, address indexed to, uint256 value);\n\n    /**\n     * @dev Emitted when the allowance of a `spender` for an `owner` is set by\n     * a call to {approve}. `value` is the new allowance.\n     */\n    event Approval(address indexed owner, address indexed spender, uint256 value);\n}\n\n// File: node_modules\\@studydefi\\money-legos\\dydx\\contracts\\ISoloMargin.sol\n\npragma solidity ^0.6.0;\npragma experimental ABIEncoderV2;\n\n\nlibrary Account {\n    enum Status {Normal, Liquid, Vapor}\n    struct Info {\n        address owner; // The address that owns the account\n        uint256 number; // A nonce that allows a single address to control many accounts\n    }\n    struct Storage {\n        mapping(uint256 => Types.Par) balances; // Mapping from marketId to principal\n        Status status;\n    }\n}\n\n\nlibrary Actions {\n    enum ActionType {\n        Deposit, // supply tokens\n        Withdraw, // borrow tokens\n        Transfer, // transfer balance between accounts\n        Buy, // buy an amount of some token (publicly)\n        Sell, // sell an amount of some token (publicly)\n        Trade, // trade tokens against another account\n        Liquidate, // liquidate an undercollateralized or expiring account\n        Vaporize, // use excess tokens to zero-out a completely negative account\n        Call // send arbitrary data to an address\n    }\n\n    enum AccountLayout {OnePrimary, TwoPrimary, PrimaryAndSecondary}\n\n    enum MarketLayout {ZeroMarkets, OneMarket, TwoMarkets}\n\n    struct ActionArgs {\n        ActionType actionType;\n        uint256 accountId;\n        Types.AssetAmount amount;\n        uint256 primaryMarketId;\n        uint256 secondaryMarketId;\n        address otherAddress;\n        uint256 otherAccountId;\n        bytes data;\n    }\n\n    struct DepositArgs {\n        Types.AssetAmount amount;\n        Account.Info account;\n        uint256 market;\n        address from;\n    }\n\n    struct WithdrawArgs {\n        Types.AssetAmount amount;\n        Account.Info account;\n        uint256 market;\n        address to;\n    }\n\n    struct TransferArgs {\n        Types.AssetAmount amount;\n        Account.Info accountOne;\n        Account.Info accountTwo;\n        uint256 market;\n    }\n\n    struct BuyArgs {\n        Types.AssetAmount amount;\n        Account.Info account;\n        uint256 makerMarket;\n        uint256 takerMarket;\n        address exchangeWrapper;\n        bytes orderData;\n    }\n\n    struct SellArgs {\n        Types.AssetAmount amount;\n        Account.Info account;\n        uint256 takerMarket;\n        uint256 makerMarket;\n        address exchangeWrapper;\n        bytes orderData;\n    }\n\n    struct TradeArgs {\n        Types.AssetAmount amount;\n        Account.Info takerAccount;\n        Account.Info makerAccount;\n        uint256 inputMarket;\n        uint256 outputMarket;\n        address autoTrader;\n        bytes tradeData;\n    }\n\n    struct LiquidateArgs {\n        Types.AssetAmount amount;\n        Account.Info solidAccount;\n        Account.Info liquidAccount;\n        uint256 owedMarket;\n        uint256 heldMarket;\n    }\n\n    struct VaporizeArgs {\n        Types.AssetAmount amount;\n        Account.Info solidAccount;\n        Account.Info vaporAccount;\n        uint256 owedMarket;\n        uint256 heldMarket;\n    }\n\n    struct CallArgs {\n        Account.Info account;\n        address callee;\n        bytes data;\n    }\n}\n\n\nlibrary Decimal {\n    struct D256 {\n        uint256 value;\n    }\n}\n\n\nlibrary Interest {\n    struct Rate {\n        uint256 value;\n    }\n\n    struct Index {\n        uint96 borrow;\n        uint96 supply;\n        uint32 lastUpdate;\n    }\n}\n\n\nlibrary Monetary {\n    struct Price {\n        uint256 value;\n    }\n    struct Value {\n        uint256 value;\n    }\n}\n\n\nlibrary Storage {\n    // All information necessary for tracking a market\n    struct Market {\n        // Contract address of the associated ERC20 token\n        address token;\n        // Total aggregated supply and borrow amount of the entire market\n        Types.TotalPar totalPar;\n        // Interest index of the market\n        Interest.Index index;\n        // Contract address of the price oracle for this market\n        address priceOracle;\n        // Contract address of the interest setter for this market\n        address interestSetter;\n        // Multiplier on the marginRatio for this market\n        Decimal.D256 marginPremium;\n        // Multiplier on the liquidationSpread for this market\n        Decimal.D256 spreadPremium;\n        // Whether additional borrows are allowed for this market\n        bool isClosing;\n    }\n\n    // The global risk parameters that govern the health and security of the system\n    struct RiskParams {\n        // Required ratio of over-collateralization\n        Decimal.D256 marginRatio;\n        // Percentage penalty incurred by liquidated accounts\n        Decimal.D256 liquidationSpread;\n        // Percentage of the borrower's interest fee that gets passed to the suppliers\n        Decimal.D256 earningsRate;\n        // The minimum absolute borrow value of an account\n        // There must be sufficient incentivize to liquidate undercollateralized accounts\n        Monetary.Value minBorrowedValue;\n    }\n\n    // The maximum RiskParam values that can be set\n    struct RiskLimits {\n        uint64 marginRatioMax;\n        uint64 liquidationSpreadMax;\n        uint64 earningsRateMax;\n        uint64 marginPremiumMax;\n        uint64 spreadPremiumMax;\n        uint128 minBorrowedValueMax;\n    }\n\n    // The entire storage state of Solo\n    struct State {\n        // number of markets\n        uint256 numMarkets;\n        // marketId => Market\n        mapping(uint256 => Market) markets;\n        // owner => account number => Account\n        mapping(address => mapping(uint256 => Account.Storage)) accounts;\n        // Addresses that can control other users accounts\n        mapping(address => mapping(address => bool)) operators;\n        // Addresses that can control all users accounts\n        mapping(address => bool) globalOperators;\n        // mutable risk parameters of the system\n        RiskParams riskParams;\n        // immutable risk limits of the system\n        RiskLimits riskLimits;\n    }\n}\n\n\nlibrary Types {\n    enum AssetDenomination {\n        Wei, // the amount is denominated in wei\n        Par // the amount is denominated in par\n    }\n\n    enum AssetReference {\n        Delta, // the amount is given as a delta from the current value\n        Target // the amount is given as an exact number to end up at\n    }\n\n    struct AssetAmount {\n        bool sign; // true if positive\n        AssetDenomination denomination;\n        AssetReference ref;\n        uint256 value;\n    }\n\n    struct TotalPar {\n        uint128 borrow;\n        uint128 supply;\n    }\n\n    struct Par {\n        bool sign; // true if positive\n        uint128 value;\n    }\n\n    struct Wei {\n        bool sign; // true if positive\n        uint256 value;\n    }\n}\n\n\nabstract contract ISoloMargin {\n    struct OperatorArg {\n        address operator;\n        bool trusted;\n    }\n\n    function ownerSetSpreadPremium(\n        uint256 marketId,\n        Decimal.D256 memory spreadPremium\n    ) public virtual;\n\n    function getIsGlobalOperator(address operator) public virtual view returns (bool);\n\n    function getMarketTokenAddress(uint256 marketId)\n        public virtual\n        view\n        returns (address);\n\n    function ownerSetInterestSetter(uint256 marketId, address interestSetter)\n        public virtual;\n\n    function getAccountValues(Account.Info memory account)\n        public virtual\n        view\n        returns (Monetary.Value memory, Monetary.Value memory);\n\n    function getMarketPriceOracle(uint256 marketId)\n        public virtual\n        view\n        returns (address);\n\n    function getMarketInterestSetter(uint256 marketId)\n        public virtual\n        view\n        returns (address);\n\n    function getMarketSpreadPremium(uint256 marketId)\n        public virtual\n        view\n        returns (Decimal.D256 memory);\n\n    function getNumMarkets() public virtual view returns (uint256);\n\n    function ownerWithdrawUnsupportedTokens(address token, address recipient)\n        public virtual\n        returns (uint256);\n\n    function ownerSetMinBorrowedValue(Monetary.Value memory minBorrowedValue)\n        public virtual;\n\n    function ownerSetLiquidationSpread(Decimal.D256 memory spread) public virtual;\n\n    function ownerSetEarningsRate(Decimal.D256 memory earningsRate) public virtual;\n\n    function getIsLocalOperator(address owner, address operator)\n        public virtual\n        view\n        returns (bool);\n\n    function getAccountPar(Account.Info memory account, uint256 marketId)\n        public virtual\n        view\n        returns (Types.Par memory);\n\n    function ownerSetMarginPremium(\n        uint256 marketId,\n        Decimal.D256 memory marginPremium\n    ) public virtual;\n\n    function getMarginRatio() public virtual view returns (Decimal.D256 memory);\n\n    function getMarketCurrentIndex(uint256 marketId)\n        public virtual\n        view\n        returns (Interest.Index memory);\n\n    function getMarketIsClosing(uint256 marketId) public virtual view returns (bool);\n\n    function getRiskParams() public virtual view returns (Storage.RiskParams memory);\n\n    function getAccountBalances(Account.Info memory account)\n        public virtual\n        view\n        returns (address[] memory, Types.Par[] memory, Types.Wei[] memory);\n\n    function renounceOwnership() public virtual;\n\n    function getMinBorrowedValue() public virtual view returns (Monetary.Value memory);\n\n    function setOperators(OperatorArg[] memory args) public virtual;\n\n    function getMarketPrice(uint256 marketId) public virtual view returns (address);\n\n    function owner() public  virtual view returns (address);\n\n    function isOwner() public  virtual view returns (bool);\n\n    function ownerWithdrawExcessTokens(uint256 marketId, address recipient)\n        public virtual \n        returns (uint256);\n\n    function ownerAddMarket(\n        address token,\n        address priceOracle,\n        address interestSetter,\n        Decimal.D256 memory marginPremium,\n        Decimal.D256 memory spreadPremium\n    ) public virtual ;\n\n    function operate(\n        Account.Info[] memory accounts,\n        Actions.ActionArgs[] memory actions\n    ) public virtual ;\n\n    function getMarketWithInfo(uint256 marketId)\n        public virtual \n        view\n        returns (\n            Storage.Market memory,\n            Interest.Index memory,\n            Monetary.Price memory,\n            Interest.Rate memory\n        );\n\n    function ownerSetMarginRatio(Decimal.D256 memory ratio) public virtual ;\n\n    function getLiquidationSpread() public  virtual view returns (Decimal.D256 memory);\n\n    function getAccountWei(Account.Info memory account, uint256 marketId)\n        public virtual \n        view\n        returns (Types.Wei memory);\n\n    function getMarketTotalPar(uint256 marketId)\n        public virtual \n        view\n        returns (Types.TotalPar memory);\n\n    function getLiquidationSpreadForPair(\n        uint256 heldMarketId,\n        uint256 owedMarketId\n    ) public virtual  view returns (Decimal.D256 memory);\n\n    function getNumExcessTokens(uint256 marketId)\n        public virtual \n        view\n        returns (Types.Wei memory);\n\n    function getMarketCachedIndex(uint256 marketId)\n        public virtual \n        view\n        returns (Interest.Index memory);\n\n    function getAccountStatus(Account.Info memory account)\n        public virtual \n        view\n        returns (uint8);\n\n    function getEarningsRate() public virtual  view returns (Decimal.D256 memory);\n\n    function ownerSetPriceOracle(uint256 marketId, address priceOracle) public virtual ;\n\n    function getRiskLimits() public  virtual view returns (Storage.RiskLimits memory);\n\n    function getMarket(uint256 marketId)\n        public virtual \n        view\n        returns (Storage.Market memory);\n\n    function ownerSetIsClosing(uint256 marketId, bool isClosing) public virtual ;\n\n    function ownerSetGlobalOperator(address operator, bool approved) public virtual ;\n\n    function transferOwnership(address newOwner) public virtual ;\n\n    function getAdjustedAccountValues(Account.Info memory account)\n        public virtual \n        view\n        returns (Monetary.Value memory, Monetary.Value memory);\n\n    function getMarketMarginPremium(uint256 marketId)\n        public virtual \n        view\n        returns (Decimal.D256 memory);\n\n    function getMarketInterestRate(uint256 marketId)\n        public virtual \n        view\n        returns (Interest.Rate memory);\n}\n\n// File: @studydefi\\money-legos\\dydx\\contracts\\DydxFlashloanBase.sol\n\npragma solidity ^0.6.0;\n\n\n\n\n\ncontract DydxFlashloanBase {\n    using SafeMath for uint256;\n\n    // -- Internal Helper functions -- //\n\n    function _getMarketIdFromTokenAddress(address _solo, address token)\n        internal\n        view\n        returns (uint256)\n    {\n        ISoloMargin solo = ISoloMargin(_solo);\n\n        uint256 numMarkets = solo.getNumMarkets();\n\n        address curToken;\n        for (uint256 i = 0; i < numMarkets; i++) {\n            curToken = solo.getMarketTokenAddress(i);\n\n            if (curToken == token) {\n                return i;\n            }\n        }\n\n        revert(\"No marketId found for provided token\");\n    }\n\n    function _getRepaymentAmountInternal(uint256 amount)\n        internal\n        view\n        returns (uint256)\n    {\n        // Needs to be overcollateralize\n        // Needs to provide +2 wei to be safe\n        return amount.add(2);\n    }\n\n    function _getAccountInfo() internal view returns (Account.Info memory) {\n        return Account.Info({owner: address(this), number: 1});\n    }\n\n    function _getWithdrawAction(uint marketId, uint256 amount)\n        internal\n        view\n        returns (Actions.ActionArgs memory)\n    {\n        return\n            Actions.ActionArgs({\n                actionType: Actions.ActionType.Withdraw,\n                accountId: 0,\n                amount: Types.AssetAmount({\n                    sign: false,\n                    denomination: Types.AssetDenomination.Wei,\n                    ref: Types.AssetReference.Delta,\n                    value: amount\n                }),\n                primaryMarketId: marketId,\n                secondaryMarketId: 0,\n                otherAddress: address(this),\n                otherAccountId: 0,\n                data: \"\"\n            });\n    }\n\n    function _getCallAction(bytes memory data)\n        internal\n        view\n        returns (Actions.ActionArgs memory)\n    {\n        return\n            Actions.ActionArgs({\n                actionType: Actions.ActionType.Call,\n                accountId: 0,\n                amount: Types.AssetAmount({\n                    sign: false,\n                    denomination: Types.AssetDenomination.Wei,\n                    ref: Types.AssetReference.Delta,\n                    value: 0\n                }),\n                primaryMarketId: 0,\n                secondaryMarketId: 0,\n                otherAddress: address(this),\n                otherAccountId: 0,\n                data: data\n            });\n    }\n\n    function _getDepositAction(uint marketId, uint256 amount)\n        internal\n        view\n        returns (Actions.ActionArgs memory)\n    {\n        return\n            Actions.ActionArgs({\n                actionType: Actions.ActionType.Deposit,\n                accountId: 0,\n                amount: Types.AssetAmount({\n                    sign: true,\n                    denomination: Types.AssetDenomination.Wei,\n                    ref: Types.AssetReference.Delta,\n                    value: amount\n                }),\n                primaryMarketId: marketId,\n                secondaryMarketId: 0,\n                otherAddress: address(this),\n                otherAccountId: 0,\n                data: \"\"\n            });\n    }\n}\n\n// File: @studydefi\\money-legos\\dydx\\contracts\\ICallee.sol\n\npragma solidity ^0.6.0;\n\n\n/**\n * @title ICallee\n * @author dYdX\n *\n * Interface that Callees for Solo must implement in order to ingest data.\n */\nabstract contract ICallee {\n\n    // ============ Public Functions ============\n\n    /**\n     * Allows users to send this contract arbitrary data.\n     *\n     * @param  sender       The msg.sender to Solo\n     * @param  accountInfo  The account from which the data is being sent\n     * @param  data         Arbitrary data given by the sender\n     */\n     function callFunction(\n        address sender,\n        Account.Info memory accountInfo,\n        bytes memory data\n    )\n        public virtual;\n}\n\n// File: @studydefi\\money-legos\\onesplit\\contracts\\IOneSplit.sol\n\npragma solidity ^0.6.0;\n\n\n\ncontract IOneSplitConsts {\n    // disableFlags = FLAG_DISABLE_UNISWAP + FLAG_DISABLE_KYBER + ...\n    uint256 public constant FLAG_DISABLE_UNISWAP = 0x01;\n    uint256 public constant FLAG_DISABLE_KYBER = 0x02;\n    uint256 public constant FLAG_ENABLE_KYBER_UNISWAP_RESERVE = 0x100000000; // Turned off by default\n    uint256 public constant FLAG_ENABLE_KYBER_OASIS_RESERVE = 0x200000000; // Turned off by default\n    uint256 public constant FLAG_ENABLE_KYBER_BANCOR_RESERVE = 0x400000000; // Turned off by default\n    uint256 public constant FLAG_DISABLE_BANCOR = 0x04;\n    uint256 public constant FLAG_DISABLE_OASIS = 0x08;\n    uint256 public constant FLAG_DISABLE_COMPOUND = 0x10;\n    uint256 public constant FLAG_DISABLE_FULCRUM = 0x20;\n    uint256 public constant FLAG_DISABLE_CHAI = 0x40;\n    uint256 public constant FLAG_DISABLE_AAVE = 0x80;\n    uint256 public constant FLAG_DISABLE_SMART_TOKEN = 0x100;\n    uint256 public constant FLAG_ENABLE_MULTI_PATH_ETH = 0x200; // Turned off by default\n    uint256 public constant FLAG_DISABLE_BDAI = 0x400;\n    uint256 public constant FLAG_DISABLE_IEARN = 0x800;\n    uint256 public constant FLAG_DISABLE_CURVE_COMPOUND = 0x1000;\n    uint256 public constant FLAG_DISABLE_CURVE_USDT = 0x2000;\n    uint256 public constant FLAG_DISABLE_CURVE_Y = 0x4000;\n    uint256 public constant FLAG_DISABLE_CURVE_BINANCE = 0x8000;\n    uint256 public constant FLAG_ENABLE_MULTI_PATH_DAI = 0x10000; // Turned off by default\n    uint256 public constant FLAG_ENABLE_MULTI_PATH_USDC = 0x20000; // Turned off by default\n    uint256 public constant FLAG_DISABLE_CURVE_SYNTHETIX = 0x40000;\n    uint256 public constant FLAG_DISABLE_WETH = 0x80000;\n    uint256 public constant FLAG_ENABLE_UNISWAP_COMPOUND = 0x100000; // Works only when one of assets is ETH or FLAG_ENABLE_MULTI_PATH_ETH\n    uint256 public constant FLAG_ENABLE_UNISWAP_CHAI = 0x200000; // Works only when ETH<>DAI or FLAG_ENABLE_MULTI_PATH_ETH\n    uint256 public constant FLAG_ENABLE_UNISWAP_AAVE = 0x400000; // Works only when one of assets is ETH or FLAG_ENABLE_MULTI_PATH_ETH\n    uint256 public constant FLAG_DISABLE_IDLE = 0x800000;\n}\n\n\nabstract contract IOneSplit is IOneSplitConsts {\n    function getExpectedReturn(\n        IERC20 fromToken,\n        IERC20 toToken,\n        uint256 amount,\n        uint256 parts,\n        uint256 disableFlags\n    )\n        public virtual \n        view\n        returns(\n            uint256 returnAmount,\n            uint256[] memory distribution\n        );\n\n    function swap(\n        IERC20 fromToken,\n        IERC20 toToken,\n        uint256 amount,\n        uint256 minReturn,\n        uint256[] memory distribution,\n        uint256 disableFlags\n    ) public virtual  payable;\n}\n\n// File: contracts\\DydxFlashLoaner.sol\n\npragma solidity ^0.6.0;\n\ncontract DydxFlashloaner is ICallee, DydxFlashloanBase {\n    event Logger(uint256 number, uint256 amount);\n\n    struct MyCustomData {\n        address token;\n\t\tuint256 initialAmount;\n        uint256 finalRepayAmount;\n\t\taddress[] sequences;\n\t\tuint256[] returnAmounts;\n\t\tuint[] distributions;\n\t\tuint parts;\n    }\n\t\n\taddress payable owner = msg.sender;\n\t\n\taddress constant OneSplitAddress = 0xC586BeF4a0992C495Cf22e1aeEE4E446CECDee0E;\n\t\n\tmodifier onlyOwner () {\n\t\trequire(msg.sender == owner);\n\t\t_;\n\t}\n\t\n\tfallback() external payable { }\n\n\tfunction withdraw(uint256 _amount) external payable onlyOwner returns (bool) {\n\t\tif (_amount <= address(this).balance)\n\t\t{\n\t\t\tmsg.sender.transfer(_amount);\n\t\t\treturn true;\n\t\t}\n\t\t\n\t\treturn false;\n\t}\n\n\tfunction approve(address _token, uint256 _amount) external onlyOwner returns (bool) {\n\t\treturn IERC20(_token).approve(msg.sender, _amount);\n\t}\n\n\tfunction withdrawToken(address _token, uint256 _amount) external onlyOwner returns (bool) {\n\t\treturn IERC20(_token).transfer(msg.sender, _amount);\n\t}\n\n\t// This is the function that will be called postLoan\n    // i.e. Encode the logic to handle your flashloaned funds here\n    function callFunction  (\n        address sender,\n        Account.Info memory account,\n        bytes memory data\n    ) public override {\n        \n\t\tMyCustomData memory mcd = abi.decode(data, (MyCustomData));\n        uint256 balOfLoanedToken = IERC20(mcd.token).balanceOf(address(this));\n\n        // Note that you can ignore the line below\n        // if your dydx account (this contract in this case)\n        // has deposited at least ~2 Wei of assets into the account\n        // to balance out the collaterization ratio\n        require(\n            balOfLoanedToken >= mcd.finalRepayAmount,\n            \"Do Not have enough funds to repay dydx loan!\"\n        );\n\n\t\tuint256 swapAmount = mcd.initialAmount;\n\t\t\n\t\tfor(uint ii=1; ii < mcd.sequences.length; ++ii)\n\t\t{\n\t\t\tIERC20 fromIERC20 = IERC20(mcd.sequences[ii-1]);\n\t\t\tIERC20 toIERC20 = IERC20(mcd.sequences[ii]);\n\t\t\tuint[] memory dist;\t\n\t\t\t\n\t\t\tfor(uint jj=0; jj < mcd.parts; ++jj)\n\t\t\t{\n\t\t\t\tdist[jj] = mcd.distributions[jj+(ii-1)*mcd.parts];\n\t\t\t}\n\t\t\t\n\t\t\tIOneSplit(OneSplitAddress).swap(\n\t\t\t\tfromIERC20,\n\t\t\t\ttoIERC20,\n\t\t\t\tswapAmount,\n\t\t\t\tmcd.returnAmounts[ii-1],\n\t\t\t\tdist,\n\t\t\t\t0\n\t\t\t);\n\t\t\t\n\t\t\tswapAmount = mcd.returnAmounts[ii-1];\n\t\t}\n\n        require(swapAmount > mcd.initialAmount, 'swap not profitable');\n\t}\n\n    function initateFlashLoan(address _solo, address _token, uint256 _amount, \n\t                          address[] calldata _sequences, \n\t\t\t\t\t\t\t  uint256[] calldata _returnAmounts,\n\t\t\t\t\t\t\t  uint[] calldata _distributions, uint _parts)\n        external\n    {\n\t\temit Logger(10, 10);\n        ISoloMargin solo = ISoloMargin(_solo);\n\n        // Get marketId from token address\n        uint256 marketId = _getMarketIdFromTokenAddress(_solo, _token);\n\n        // Calculate repay amount (_amount + (2 wei))\n        // Approve transfer from\n        uint256 repayAmount = _getRepaymentAmountInternal(_amount);\n        IERC20(_token).approve(_solo, repayAmount);\n\t\t\n\t\t\n        // 1. Withdraw $\n        // 2. Call callFunction(...)\n        // 3. Deposit back $\n        Actions.ActionArgs[] memory operations = new Actions.ActionArgs[](3);\n\t\temit Logger(0, 0);\n        operations[0] = _getWithdrawAction(marketId, _amount);\n\t\temit Logger(0, 1);\n        operations[1] = _getCallAction(\n            // Encode MyCustomData for callFunction\n            abi.encode(MyCustomData({token: _token, finalRepayAmount: repayAmount, \n\t\t\t\t\t\t\t\t\t initialAmount: _amount,\n\t\t\t                         sequences: _sequences, returnAmounts: _returnAmounts,\n\t\t\t\t\t\t\t\t\t distributions: _distributions, parts: _parts}))\n        );\n\t\t\n\t\temit Logger(0, 2);\n        operations[2] = _getDepositAction(marketId, repayAmount);\n\n        Account.Info[] memory accountInfos = new Account.Info[](1);\n        accountInfos[0] = _getAccountInfo();\n\n        solo.operate(accountInfos, operations);\n    }\n}\n",
  "sourcePath": "c:/Pravin/dag/1inchProtocol/contracts/DydxFlashLoaner.sol",
  "compiler": {
    "name": "solc",
    "version": "0.6.6+commit.6c089d02.Emscripten.clang"
  },
  "schemaVersion": "3.2.3",
  "updatedAt": "2020-08-10T17:08:47.708Z",
  "networkType": "ethereum",
  "devdoc": {
    "methods": {}
  },
  "userdoc": {
    "methods": {}
  }
}